{
  "contractName": "MyContract",
  "abi": [
    {
      "inputs": [],
      "payable": false,
      "stateMutability": "nonpayable",
      "type": "constructor"
    },
    {
      "constant": true,
      "inputs": [],
      "name": "getUser",
      "outputs": [
        {
          "internalType": "string",
          "name": "",
          "type": "string"
        }
      ],
      "payable": false,
      "stateMutability": "view",
      "type": "function"
    },
    {
      "constant": true,
      "inputs": [],
      "name": "getProof",
      "outputs": [
        {
          "internalType": "string",
          "name": "",
          "type": "string"
        }
      ],
      "payable": false,
      "stateMutability": "view",
      "type": "function"
    },
    {
      "constant": false,
      "inputs": [
        {
          "internalType": "string",
          "name": "_username",
          "type": "string"
        },
        {
          "internalType": "string",
          "name": "_proof",
          "type": "string"
        }
      ],
      "name": "set",
      "outputs": [],
      "payable": false,
      "stateMutability": "nonpayable",
      "type": "function"
    }
  ],
  "bytecode": "0x608060405234801561001057600080fd5b506040518060400160405280600481526020017f75736572000000000000000000000000000000000000000000000000000000008152506000908051906020019061005c9291906100ae565b506040518060400160405280600781526020017f6d7950726f6f6600000000000000000000000000000000000000000000000000815250600190805190602001906100a89291906100ae565b50610153565b828054600181600116156101000203166002900490600052602060002090601f016020900481019282601f106100ef57805160ff191683800117855561011d565b8280016001018555821561011d579182015b8281111561011c578251825591602001919060010190610101565b5b50905061012a919061012e565b5090565b61015091905b8082111561014c576000816000905550600101610134565b5090565b90565b6104ee806101626000396000f3fe608060405234801561001057600080fd5b50600436106100415760003560e01c80635c5d625e14610046578063832880e7146100c9578063e942b5161461014c575b600080fd5b61004e61029e565b6040518080602001828103825283818151815260200191508051906020019080838360005b8381101561008e578082015181840152602081019050610073565b50505050905090810190601f1680156100bb5780820380516001836020036101000a031916815260200191505b509250505060405180910390f35b6100d1610340565b6040518080602001828103825283818151815260200191508051906020019080838360005b838110156101115780820151818401526020810190506100f6565b50505050905090810190601f16801561013e5780820380516001836020036101000a031916815260200191505b509250505060405180910390f35b61029c6004803603604081101561016257600080fd5b810190808035906020019064010000000081111561017f57600080fd5b82018360208201111561019157600080fd5b803590602001918460018302840111640100000000831117156101b357600080fd5b91908080601f016020809104026020016040519081016040528093929190818152602001838380828437600081840152601f19601f8201169050808301925050505050505091929192908035906020019064010000000081111561021657600080fd5b82018360208201111561022857600080fd5b8035906020019184600183028401116401000000008311171561024a57600080fd5b91908080601f016020809104026020016040519081016040528093929190818152602001838380828437600081840152601f19601f8201169050808301925050505050505091929192905050506103e2565b005b606060018054600181600116156101000203166002900480601f0160208091040260200160405190810160405280929190818152602001828054600181600116156101000203166002900480156103365780601f1061030b57610100808354040283529160200191610336565b820191906000526020600020905b81548152906001019060200180831161031957829003601f168201915b5050505050905090565b606060008054600181600116156101000203166002900480601f0160208091040260200160405190810160405280929190818152602001828054600181600116156101000203166002900480156103d85780601f106103ad576101008083540402835291602001916103d8565b820191906000526020600020905b8154815290600101906020018083116103bb57829003601f168201915b5050505050905090565b81600090805190602001906103f8929190610414565b50806001908051906020019061040f929190610414565b505050565b828054600181600116156101000203166002900490600052602060002090601f016020900481019282601f1061045557805160ff1916838001178555610483565b82800160010185558215610483579182015b82811115610482578251825591602001919060010190610467565b5b5090506104909190610494565b5090565b6104b691905b808211156104b257600081600090555060010161049a565b5090565b9056fea265627a7a7231582049ad6fe598816604f422f22cade597948a9a1a9c16b07fcb2276052ac54ae2b764736f6c63430005100032",
  "source": "pragma solidity >=0.4.22 <0.9.0;\ncontract MyContract {\n\n    string username;\n    string proof;\n\n    constructor() public {\n        username = \"user\";\n        proof = \"myProof\";\n    }\n\n\n    function getUser() public view returns(string memory ) {\n        return username;\n    }\n\n    function getProof() public view returns(string memory) {\n        return proof;\n    }\n\n    function set(string memory _username, string memory _proof) public {\n        username = _username;\n        proof = _proof;\n    }\n}",
  "sourcePath": "/home/xiabee/Desktop/nodejs/contracts/MyContract.sol",
  "compiler": {
    "name": "solc",
    "version": "0.5.16+commit.9c3226ce.Emscripten.clang"
  },
  "schemaVersion": "3.4.1",
  "updatedAt": "2021-05-30T05:55:26.604Z",
  "networkType": "ethereum",
  "devdoc": {
    "methods": {}
  },
  "userdoc": {
    "methods": {}
  }
}